{
  "contractName": "Insurance",
  "abi": [
    {
      "inputs": [],
      "stateMutability": "nonpayable",
      "type": "constructor"
    },
    {
      "inputs": [
        {
          "internalType": "uint256",
          "name": "",
          "type": "uint256"
        }
      ],
      "name": "employers",
      "outputs": [
        {
          "internalType": "address payable",
          "name": "",
          "type": "address"
        }
      ],
      "stateMutability": "view",
      "type": "function"
    },
    {
      "inputs": [
        {
          "internalType": "address",
          "name": "",
          "type": "address"
        }
      ],
      "name": "registered",
      "outputs": [
        {
          "internalType": "bool",
          "name": "",
          "type": "bool"
        }
      ],
      "stateMutability": "view",
      "type": "function"
    },
    {
      "stateMutability": "payable",
      "type": "receive"
    },
    {
      "inputs": [],
      "name": "getBalance",
      "outputs": [
        {
          "internalType": "uint256",
          "name": "",
          "type": "uint256"
        }
      ],
      "stateMutability": "view",
      "type": "function"
    },
    {
      "inputs": [],
      "name": "getAllEmployees",
      "outputs": [
        {
          "internalType": "address payable[]",
          "name": "",
          "type": "address[]"
        }
      ],
      "stateMutability": "view",
      "type": "function"
    }
  ],
  "bytecode": "0x608060405234801561001057600080fd5b50336000806101000a81548173ffffffffffffffffffffffffffffffffffffffff021916908373ffffffffffffffffffffffffffffffffffffffff160217905550610855806100606000396000f3fe6080604052600436106100435760003560e01c8063066c4562146101e157806312065fe01461021e578063b2dd5c0714610249578063e3366fed14610286576101dc565b366101dc57670de0b6b3a76400003414610092576040517f08c379a000000000000000000000000000000000000000000000000000000000815260040161008990610492565b60405180910390fd5b600260003373ffffffffffffffffffffffffffffffffffffffff1673ffffffffffffffffffffffffffffffffffffffff16815260200190815260200160002060009054906101000a900460ff161561011f576040517f08c379a0000000000000000000000000000000000000000000000000000000008152600401610116906104fe565b60405180910390fd5b6001600260003373ffffffffffffffffffffffffffffffffffffffff1673ffffffffffffffffffffffffffffffffffffffff16815260200190815260200160002060006101000a81548160ff0219169083151502179055506001339080600181540180825580915050600190039060005260206000200160009091909190916101000a81548173ffffffffffffffffffffffffffffffffffffffff021916908373ffffffffffffffffffffffffffffffffffffffff160217905550005b600080fd5b3480156101ed57600080fd5b5061020860048036038101906102039190610559565b6102b1565b60405161021591906105c7565b60405180910390f35b34801561022a57600080fd5b506102336102f0565b60405161024091906105f1565b60405180910390f35b34801561025557600080fd5b50610270600480360381019061026b919061064a565b610387565b60405161027d9190610692565b60405180910390f35b34801561029257600080fd5b5061029b6103a7565b6040516102a8919061076b565b60405180910390f35b600181815481106102c157600080fd5b906000526020600020016000915054906101000a900473ffffffffffffffffffffffffffffffffffffffff1681565b60008060009054906101000a900473ffffffffffffffffffffffffffffffffffffffff1673ffffffffffffffffffffffffffffffffffffffff163373ffffffffffffffffffffffffffffffffffffffff1614610381576040517f08c379a0000000000000000000000000000000000000000000000000000000008152600401610378906107ff565b60405180910390fd5b47905090565b60026020528060005260406000206000915054906101000a900460ff1681565b6060600180548060200260200160405190810160405280929190818152602001828054801561042b57602002820191906000526020600020905b8160009054906101000a900473ffffffffffffffffffffffffffffffffffffffff1673ffffffffffffffffffffffffffffffffffffffff16815260200190600101908083116103e1575b5050505050905090565b600082825260208201905092915050565b7f5061792031206574686572206f6e6c7900000000000000000000000000000000600082015250565b600061047c601083610435565b915061048782610446565b602082019050919050565b600060208201905081810360008301526104ab8161046f565b9050919050565b7f596f752061726520616c72656164792072656769737465726564000000000000600082015250565b60006104e8601a83610435565b91506104f3826104b2565b602082019050919050565b60006020820190508181036000830152610517816104db565b9050919050565b600080fd5b6000819050919050565b61053681610523565b811461054157600080fd5b50565b6000813590506105538161052d565b92915050565b60006020828403121561056f5761056e61051e565b5b600061057d84828501610544565b91505092915050565b600073ffffffffffffffffffffffffffffffffffffffff82169050919050565b60006105b182610586565b9050919050565b6105c1816105a6565b82525050565b60006020820190506105dc60008301846105b8565b92915050565b6105eb81610523565b82525050565b600060208201905061060660008301846105e2565b92915050565b600061061782610586565b9050919050565b6106278161060c565b811461063257600080fd5b50565b6000813590506106448161061e565b92915050565b6000602082840312156106605761065f61051e565b5b600061066e84828501610635565b91505092915050565b60008115159050919050565b61068c81610677565b82525050565b60006020820190506106a76000830184610683565b92915050565b600081519050919050565b600082825260208201905092915050565b6000819050602082019050919050565b6106e2816105a6565b82525050565b60006106f483836106d9565b60208301905092915050565b6000602082019050919050565b6000610718826106ad565b61072281856106b8565b935061072d836106c9565b8060005b8381101561075e57815161074588826106e8565b975061075083610700565b925050600181019050610731565b5085935050505092915050565b60006020820190508181036000830152610785818461070d565b905092915050565b7f4f6e6c7920746865206d616e616765722063616e2063616c6c2074686973206660008201527f756e6374696f6e00000000000000000000000000000000000000000000000000602082015250565b60006107e9602783610435565b91506107f48261078d565b604082019050919050565b60006020820190508181036000830152610818816107dc565b905091905056fea26469706673582212201610c6d1cc30112f7a4aea065ebf0eb476221f369aa4bd5cad974eb4013c7a2b64736f6c634300080b0033",
  "immutableReferences": {},
  "source": "// SPDX-License-Identifier: GPL-3.0\r\n//0xAF6DbFc760FA9dEf4A08bFcA71B43Df3EBE5edAB\r\n//ganache -0x39Cad512A953209A52E7E98A062EB7D66AAC5eb3\r\n\r\npragma solidity >=0.7.0 <0.9.0;\r\n\r\ncontract Insurance {\r\n\r\n    address manager; // The address of the manager\r\n    address payable[] public employers; \r\n    mapping(address => bool) public registered;\r\n    \r\n    // Constructor function\r\n    constructor() {\r\n        manager = msg.sender;\r\n    }\r\n\r\n    function getBalance() public view returns(uint)  {\r\n        require(msg.sender == manager, \"Only the manager can call this function\");\r\n        return address(this).balance;\r\n    }\r\n\r\n    function getAllEmployees() public view returns (address payable[]  memory) {\r\n        return employers;\r\n    }\r\n    \r\n    \r\n    // Fallback function to receive funds\r\n    receive() external payable {\r\n        require(msg.value == 1 ether, \"Pay 1 ether only\");\r\n        require(!registered[msg.sender], \"You are already registered\");\r\n        registered[msg.sender] = true;\r\n        \r\n        employers.push(payable (msg.sender));\r\n\r\n    }\r\n    \r\n}\r\n\r\n\r\n// Ganache - 0xbb48075CF1DcB1386Fc881777C3138B1fD886D9e\r\n// contract Insurance {\r\n\r\n//     address payable public manager; // The address of the manager\r\n//     mapping(address => bool) public employees; // The list of employees\r\n//     address[] public employeeList;\r\n    \r\n//     // Constructor function\r\n//     constructor() {\r\n//         manager = payable(msg.sender);\r\n//     }\r\n    \r\n//     // Modifier to ensure that only the manager can call certain functions\r\n//     modifier onlyManager() {\r\n//         require(msg.sender == manager, \"Only the manager can call this function\");\r\n//         _;\r\n//     }\r\n    \r\n//     // Modifier to ensure that only registered employees can call certain functions\r\n//     modifier onlyEmployee() {\r\n//         require(employees[msg.sender], \"Only registered employees can call this function\");\r\n//         _;\r\n//     }\r\n    \r\n//     // Function for the manager to add new employees\r\n//     function addEmployee(address employeeAddress) public onlyManager {\r\n//         employees[employeeAddress] = true;\r\n//     }\r\n    \r\n//     // Function for the manager to remove employees\r\n//     function removeEmployee(address employeeAddress) public onlyManager {\r\n//         employees[employeeAddress] = false;\r\n//     }\r\n\r\n//     function getBalance() public view returns(uint)  {\r\n//         return address(this).balance;\r\n//     }\r\n\r\n//     function getAllEmployees() public view returns (address[] memory) {\r\n//         return employeeList;\r\n//     }\r\n    \r\n//     // Function for an employee to check their health and temperature values\r\n//     function checkValues(uint256 health, uint256 temperature) public onlyEmployee {\r\n//         if (health == 0 && temperature == 0) {\r\n//             payable(msg.sender).transfer(address(this).balance); // Send the funds to the employee\r\n//         }\r\n//     }\r\n    \r\n//     // Fallback function to receive funds\r\n//     receive() external payable {}\r\n    \r\n//     // Function for the manager to withdraw funds from the contract\r\n//     function withdrawFunds() public onlyManager {\r\n//         manager.transfer(address(this).balance);\r\n//     }\r\n// }\r\n",
  "sourcePath": "C:\\Users\\SHAGHIL\\Desktop\\FYP-API\\Dapp_2\\web3lab\\contracts\\Insurance.sol",
  "compiler": {
    "name": "solc",
    "version": "0.8.11+commit.d7f03943.Emscripten.clang"
  },
  "schemaVersion": "3.4.13",
  "updatedAt": "2023-04-14T16:51:54.327Z",
  "devdoc": {
    "kind": "dev",
    "methods": {},
    "version": 1
  },
  "userdoc": {
    "kind": "user",
    "methods": {},
    "version": 1
  }
}